{
 "name": "p2sh-post-activation-spend",
 "class": "p2sh",
 "txid": "3a12b4f2361806a2f8508ebcf1968cd07052351c24bfe069f143ef244c24a7e8",
 "wtxid": "3a12b4f2361806a2f8508ebcf1968cd07052351c24bfe069f143ef244c24a7e8",
 "height": 400000,
 "source": "https://mempool.space/api/tx/3a12b4f2361806a2f8508ebcf1968cd07052351c24bfe069f143ef244c24a7e8",
 "flags": "P2SH,DERSIG,CHECKLOCKTIMEVERIFY",
 "interpreter_parity": false,
 "tx_hex": "0100000001147c529fbed06e2f53f10ce02e8397652876cf992a7b345ec981bc755a24fb3401000000d90047304402206480aa4304c7316b27e5f3527f18290ba1f147aa2554063197eb8d945df3fc8e02204806bbd9663aab321a09610961bfe0feeb192f20e0d79c2d6edb342f3cff969901473044022068a3f69c568eb2ffdfd6cb0fb69955b14c1a072973ce30ce9c3ba2f2e5c3394d022047db339c2bed88df255aceb29c2637f3974248f4be630d7193e9c2774eb9a2a501475221023c6bb803126268d6bbb1d8f05a8ae7bba685b1a3c0137fcbdcf3dbabc4e4b39a21039de309704a1585d2fe2ab336cfd1654bd73bd0f3068bd1dc09f02dd50281d6f652aeffffffff02c064af00000000001976a91433d5abd8af500b1ed0c5a02ddcf98f5dafc3771688acdd2c15040000000017a914a4309d99780d278614523f5c7165bd31227dedbc8700000000",
 "prevouts": [
  {
   "script_hex": "a914a4309d99780d278614523f5c7165bd31227dedbc87",
   "amount_sat": 80041197
  }
 ]
}
